:020000040802F0
:10000000000600203D0D020805170C0809170C0812
:1000100071170C0809170C083D170C083F0D020852
:100020003F0D02083F0D02083F0D02086D961408AF
:100030003F0D02083F0D02083F0D02083F0D020868
:100040003F0D02083F0D02083F0D02083F0D020858
:100050003F0D02083F0D020891131508BD13150846
:10006000E9131508151415084114150899A014086A
:10007000C1A01408EDA0140819A1140845A1140882
:100080006DA1140899A114083D9F1408B5110C081E
:100090003F0D020839120C083F0D02086D141508B7
:1000A0003F0D02083F0D02083F0D02083F0D0208F8
:1000B0003F0D0208D5BB14083F0D02080DAA140815
:1000C00049AA140885AA1408C1AA1408D1B51408AD
:1000D000E5B51408F5C4140809C514081DC51408AD
:1000E000D51415083F0D02083F0D02085D1C1508C8
:1000F0003F0D02083F0D02083F0D0208C5A114087C
:100100003F0D02088DAF14083F0D0208F9B5140821
:1001100031C514083F0D02083F0D02083F0D0208CB
:10012000F1A1140819A2140845A2140871A2140818
:100130009DA214083F0D02083F0D02083F0D020862
:100140003F0D02083F0D02083F0D02083F0D020857
:10015000C5A21408F1A214081DA3140845C514086B
:100160003F0D02083F0D02083F0D02083F0D020837
:100170003F0D0208291015083F0D02083F0D020827
:100180003F0D02083F0D020859C514086DC514083B
:100190000DB614083F0D02083F0D02083F0D02087E
:1001A0003F0D02083F0D02083F0D02083F0D0208F7
:1001B0003F0D02083F0D02083F0D02083F0D0208E7
:1001C0003F0D02083F0D02083F0D02083F0D0208D7
:1001D0003F0D0208151015083F0D02083F0D0208DB
:1001E0003F0D02083F0D02083F0D02083F0D0208B7
:1001F0003F0D02083F0D02083F0D02083F0D0208A7
:100200003F0D02083F0D02083F0D02083F0D020896
:100210003F0D02083F0D02083F0D02083F0D020886
:100220003F0D02083F0D02083F0D02083F0D020876
:100230003F0D02083F0D02083F0D02083F0D020866
:100240003F0D02083F0D02083F0D02083F0D020856
:100250003F0D02083F0D02083F0D02083F0D020846
:100260003F0D02083F0D02083F0D02083F0D020836
:100270003F0D02083F0D02083F0D02083F0D020826
:100280003F0D02083F0D02083F0D02083F0D020816
:100290003F0D02083F0D02083F0D02083F0D020806
:1002A000853A02087D6F020829060308BDCB0308C2
:1002B00085E2030871EF030815190408CD2104082D
:1002C000F1790408BD9C0408B10A05083DD0050871
:1002D0003D690608716B06080D980608C19B060863
:1002E000A1AB060841D706088149070879520708DB
:1002F0001D56070809CE0708FDED0708AD270908B8
:1003000025880908C994090895C2090861580A088E
:10031000055F0B08CD120C086D150C088D1B0C0821
:10032000F1CA0D0865EC0D08BDF10D08ED010E08D0
:10033000A11B0E08D51B0E08A1490E08F58B0E084F
:100340000DB30E086DB60E08F5E90E0841280F082A
:100350003D9911080DA21108DDE31108513412086E
:1003600031C2120885CB120859EE1208511D13082C
:1003700081F0004102E000BF83F0004330B54FEA56
:1003800041044FEA430594EA050F08BF90EA020FC3
:100390001FBF54EA000C55EA020C7FEA645C7FEA56
:1003A000655C00F0E2804FEA5454D4EB5555B8BF79
:1003B0006D420CDD2C4480EA020281EA030382EAEA
:1003C000000083EA010180EA020281EA0303362D7C
:1003D00088BF30BD11F0004F4FEA01314FF4801C4F
:1003E0004CEA113102D0404261EB410113F0004F61
:1003F0004FEA03334CEA133302D0524263EB430318
:1004000094EA050F00F0A780A4F10104D5F1200EB5
:100410000DDB02FA0EFC22FA05F2801841F1000110
:1004200003FA0EF2801843FA05F359410EE0A5F1E4
:1004300020050EF1200E012A03FA0EFC28BF4CF015
:10044000020C43FA05F3C01851EBE37101F00045CB
:1004500007D54FF0000EDCF1000C7EEB00006EEBD8
:100460000101B1F5801F1BD3B1F5001F0CD3490862
:100470005FEA30004FEA3C0C04F101044FEA4452B9
:1004800012F5800F80F09A80BCF1004F08BF5FEA40
:10049000500C50F1000041EB045141EA050130BD20
:1004A0005FEA4C0C404141EB010111F4801FA4F1C3
:1004B0000104E9D191F0000F04BF01460020B1FA18
:1004C00081F308BF2033A3F10B03B3F120020CDA50
:1004D0000C3208DD02F1140CC2F10C0201FA0CF02E
:1004E00021FA02F10CE002F11402D8BFC2F1200C93
:1004F00001FA02F120FA0CFCDCBF41EA0C01904049
:10050000E41AA2BF01EB0451294330BD6FEA040491
:100510001F3C1CDA0C340EDC04F11404C4F120027C
:1005200020FA04F001FA02F340EA030021FA04F38E
:1005300045EA030130BDC4F10C04C4F1200220FAE5
:1005400002F001FA04F340EA0300294630BD21FA23
:1005500004F0294630BD94F0000F83F4801306BFE9
:1005600081F480110134013D4EE77FEA645C18BFDD
:100570007FEA655C29D094EA050F08BF90EA020F74
:1005800005D054EA000C04BF1946104630BD91EA6C
:10059000030F1EBF0021002030BD5FEA545C05D16F
:1005A0004000494128BF41F0004130BD14F58004AE
:1005B0003CBF01F5801130BD01F0004545F0FE4122
:1005C00041F470014FF0000030BD7FEA645C1ABF57
:1005D000194610467FEA655C1CBF0B46024650EA8E
:1005E000013406BF52EA033591EA030F41F40021BA
:1005F00030BD00BF90F0000F04BF0021704730B540
:100600004FF4806404F132044FF000054FF0000114
:1006100050E700BF90F0000F04BF0021704730B5D5
:100620004FF4806404F1320410F0004548BF4042AA
:100630004FF000013EE700BF42004FEAE2014FEAFF
:1006400031014FEA02701FBF12F07F4393F07F4FDA
:1006500081F06051704792F0000F14BF93F07F4F0C
:10066000704730B54FF4607401F0004521F000414F
:1006700020E700BF50EA010208BF704730B54FF0D5
:1006800000050AE050EA010208BF704730B511F0DA
:10069000004502D5404261EB41014FF4806404F112
:1006A00032045FEA915C3FF4DCAE4FF003025FEA94
:1006B000DC0C18BF03325FEADC0C18BF033202EB1C
:1006C000DC02C2F1200300FA03FC20FA02F001FA76
:1006D00003FE40EA0E0021FA02F11444C1E600BF15
:1006E00080F0004002E000BF81F0004142001FBFE7
:1006F0005FEA410392EA030F7FEA226C7FEA236CF0
:100700006AD04FEA1262D2EB1363C1BFD2184140E4
:1007100048404140B8BF5B42192B88BF704710F07A
:10072000004F40F4000020F07F4018BF404211F01D
:10073000004F41F4000121F07F4118BF494292EA85
:10074000030F3FD0A2F1010241FA03FC10EB0C00B1
:10075000C3F1200301FA03F100F0004302D549423E
:1007600060EB4000B0F5000F13D3B0F1807F06D3EB
:1007700040084FEA310102F10102FE2A51D2B1F1E3
:10078000004F40EBC25008BF20F0010040EA0300D8
:100790007047490040EB000010F4000FA2F1010285
:1007A000EDD1B0FA80FCACF1080CB2EB0C0200FA0F
:1007B0000CF0AABF00EBC25052421843BCBFD0405D
:1007C0001843704792F0000F81F4000106BF80F4D7
:1007D00000000132013BB5E74FEA41037FEA226C9A
:1007E00018BF7FEA236C21D092EA030F04D092F065
:1007F000000F08BF0846704790EA010F1CBF002099
:10080000704712F07F4F04D1400028BF40F00040F5
:10081000704712F100723CBF00F50000704700F015
:10082000004343F0FE4040F4000070477FEA22623C
:1008300016BF08467FEA23630146420206BF5FEA0D
:10084000412390EA010F40F4800070474FF000030D
:1008500004E000BF10F0004348BF40425FEA000CD4
:1008600008BF704743F0964301464FF000001CE07C
:1008700050EA010208BF70474FF000030AE000BFD2
:1008800050EA010208BF704711F0004302D5404210
:1008900061EB41015FEA010C02BF84460146002082
:1008A00043F0B64308BFA3F18053A3F50003BCFA9D
:1008B0008CF2083AA3EBC25310DB01FA02FC63444A
:1008C00000FA02FCC2F12002BCF1004F20FA02F251
:1008D00043EB020008BF20F00100704702F1200244
:1008E00001FA02FCC2F1200250EA4C0021FA02F2A5
:1008F00043EB020008BF20EADC7070477BB972B995
:100900000029BEBF00204FF0004106E008BF0028CC
:100910001CBF6FF000414FF0FF3000F00DBAADF199
:10092000080C6DE904CE002909DB002B1ADB00F06E
:1009300095F8DDF804E0DDE9022304B07047404299
:1009400061EB4101002B1BDB00F088F8DDF804E0CF
:10095000DDE9022304B0404261EB4101524263EB06
:1009600043037047524263EB430300F077F8DDF82E
:1009700004E0DDE9022304B0404261EB410170472D
:10098000524263EB430300F069F8DDF804E0DDE96F
:10099000022304B0524263EB4303704753B94AB990
:1009A000002908BF00281CBF4FF0FF314FF0FF3077
:1009B00000F0C2B9ADF1080C6DE904CE00F04EF8BC
:1009C000DDF804E0DDE9022304B07047430803F0DA
:1009D0005533C01A830803F0333300F03330184422
:1009E00000EB101000F00F3000EB002000EB004097
:1009F000000E704780EA104080EA102080EA101054
:100A000046F6961300F00F0043FA00F000F00100E4
:100A1000704700BF9FED0D6B07EE900A9FED0D5BD9
:100A2000B7EEE77A27EE066BBCEEC66B0020B8EE99
:100A3000464BA4EE457BBCEEC77B16EE101A17EEB4
:100A4000103A1843704700BFAFF300800000000069
:100A50000000F03D000000000000F0412DE9F047EB
:100A60008C460D460446089E002B51D18A421746FB
:100A70006DD9B2FA82FEBEF1000F0BD0CEF1200C80
:100A800001FA0EF520FA0CFC02FA0EF74CEA050CFE
:100A900000FA0EF44FEA174A250CBCFBFAF81FFACD
:100AA00087F90AFB18CC45EA0C4508FB09F3AB4271
:100AB0000AD9ED1908F1FF3280F02381AB4240F2F0
:100AC0002081A8F102083D44ED1AA4B2B5FBFAF06A
:100AD0000AFB105544EA054400FB09F9A14509D970
:100AE000E41900F1FF3380F00A81A14540F207814B
:100AF00002383C44A4EB090440EA08400021002EDF
:100B000061D024FA0EF4002334607360BDE8F087EE
:100B10008B4207D9002E54D0002186E821000846D8
:100B2000BDE8F087B3FA83F1002940F08E80AB4234
:100B300002D3824200F2FA80841A65EB0305012099
:100B4000AC46002E3FD086E81010BDE8F08712B901
:100B50000127B7FBF2F7B7FA87FEBEF1000F34D1D9
:100B6000EB1B3A0C1FFA87FC0121B3FBF2F8250CB2
:100B700002FB183345EA03450CFB08F3AB4207D9E7
:100B8000ED1908F1FF3002D2AB4200F2D18080466D
:100B9000ED1AA3B2B5FBF2F002FB105543EA05448F
:100BA0000CFB00FCA44507D9E41900F1FF3302D285
:100BB000A44500F2B8801846A4EB0C0440EA0840B3
:100BC0009DE731463046BDE8F087CEF1200405FAB6
:100BD0000EF307FA0EF720FA04F83A0C25FA04F49B
:100BE00048EA0308B4FBF2F14FEA184502FB11444E
:100BF0001FFA87FC45EA044501FB0CF3AB4200FAFF
:100C00000EF409D9ED1901F1FF3080F08A80AB4272
:100C100040F2878002393D44EB1A1FFA88F5B3FB96
:100C2000F2F002FB103345EA034500FB0CF3AB4244
:100C300007D9ED1900F1FF386FD2AB426DD90238F8
:100C40003D44EB1A40EA01418FE7C1F1200722FA47
:100C500007F88B4005FA01F448EA030320FA07FE7F
:100C60004FEA134CFD404EEA040EB5FBFCF94FEA87
:100C70001E440CFB19551FFA83F844EA054509FB8D
:100C800008F4AC4202FA01F200FA01FA08D9ED18B0
:100C900009F1FF3043D2AC4241D9A9F102091D4408
:100CA0002D1B1FFA8EFEB5FBFCF00CFB10554EEA17
:100CB000054400FB08F8A04507D9E41800F1FF350A
:100CC00029D2A04527D902381C4440EA0940A4EBA8
:100CD0000804A0FB02894C45C6464D4615D312D0E8
:100CE00056B1BAEB0E0364EB050404FA07F7CB40E8
:100CF0001F43CC40376074600021BDE8F087184680
:100D0000F8E69046E0E6C245EAD2B8EB020E69EB9F
:100D100003050138E4E72846D7E7404691E78146D6
:100D2000BEE7014678E702383C4445E7084608E755
:100D3000A8F102083D442BE7704700BF02E000F035
:100D400000F8FEE772B6394880F30888384880F327
:100D5000098838484EF60851CEF20001086040F28A
:100D60000000CCF200004EF63471CEF200010860B3
:100D7000BFF34F8FBFF36F8F40F20000C0F2F0005F
:100D80004EF68851CEF200010860BFF34F8FBFF3DB
:100D90006F8F4FF00000E1EE100A4EF63C71CEF27C
:100DA00000010860062080F31488BFF36F8F2FF1D5
:100DB00033FB2EF133FA4FF055301F491B4A914255
:100DC0003CBF41F8040BFAE71C49194A91423CBF69
:100DD00041F8040BFAE71A491A4A1B4B9A423EBFE4
:100DE00051F8040B42F8040BF8E700201749184AA1
:100DF00091423CBF41F8040BFAE72FF151FB2EF171
:100E000011FB144C144DAC4203DA54F8041B884710
:100E1000F9E702F027FE114C114DAC4203DA54F809
:100E2000041B8847F9E72FF139BB000000060020BA
:100E3000002600200000020800000020000600201C
:100E4000A0C31808002600201C33002020330020F7
:100E500038760120A002020870030208700302081D
:100E6000700302082DE9F04F2DED108AC1F80CD067
:100E7000D0F80CD0BDEC108ABDE8F08F002383F3CE
:100E800011882846A04700202DF1D4FF2DF146FD02
:100E900000DFFEE770B54FF0FF0C4CF4E06C1CEA8D
:100EA00011541DBF1CEA135594EA0C0F95EA0C0F60
:100EB00000F0DEF82C4481EA030621EA4C5123EAD3
:100EC0004C5350EA013518BF52EA033541F4801102
:100ED00043F4801338D0A0FB02CE4FF00005E1FBB5
:100EE00002E506F00042E0FB03E54FF00006E1FBFF
:100EF00003569CF0000F18BF4EF0010EA4F1FF0442
:100F0000B6F5007F64F5407404D25FEA4E0E6D4181
:100F100046EB060642EAC62141EA55514FEAC52092
:100F200040EA5E504FEACE2EB4F1FD0C88BFBCF50E
:100F3000E06F1ED8BEF1004F08BF5FEA500E50F1BF
:100F4000000041EB045170BD06F0004646EA010185
:100F500040EA020081EA0301B4EB5C04C2BFD4EBB7
:100F60000C0541EA045170BD41F480114FF0000EB0
:100F7000013C00F3AB8014F1360FDEBF002001F01E
:100F8000004170BDC4F10004203C35DA0C341BDC98
:100F900004F11404C4F1200500FA05F320FA04F06A
:100FA00001FA05F240EA020001F0004221F000419E
:100FB00010EBD37021FA04F642EB06015EEA430E11
:100FC00008BF20EAD37070BDC4F10C04C4F1200541
:100FD00000FA04F320FA05F001FA04F240EA0200F4
:100FE00001F0004110EBD37041F100015EEA430EC5
:100FF00008BF20EAD37070BDC4F1200500FA05F2E5
:101000004EEA020E20FA04F301FA05F243EA020363
:1010100021FA04F001F0004121FA04F220EA020072
:1010200000EBD3705EEA430E08BF20EAD37070BDB8
:1010300094F0000F0FD101F00046400041EB010198
:1010400011F4801F08BF013CF7D041EA060195F07A
:10105000000F18BF704703F00046520043EB030334
:1010600013F4801F08BF013DF7D043EA0603704721
:1010700094EA0C0F0CEA135518BF95EA0C0F0CD02C
:1010800050EA410618BF52EA4306D1D181EA030172
:1010900001F000414FF0000070BD50EA410606BF6C
:1010A0001046194652EA430619D094EA0C0F02D1B1
:1010B00050EA013613D195EA0C0F05D152EA0336F6
:1010C0001CBF104619460AD181EA030101F0004114
:1010D00041F0FE4141F470014FF0000070BD41F05D
:1010E000FE4141F4780170BD70B54FF0FF0C4CF437
:1010F000E06C1CEA11541DBF1CEA135594EA0C0F56
:1011000095EA0C0F00F0A7F8A4EB050481EA030EA2
:1011100052EA03354FEA013100F088804FEA033389
:101120004FF0805545EA131343EA12634FEA022257
:1011300045EA111545EA10654FEA00260EF0004118
:101140009D4208BF964244F1FD0404F5407402D26A
:101150005B084FEA3202B61A65EB03055B084FEAFB
:1011600032024FF480104FF4002CB6EB020E75EBF8
:10117000030E22BFB61A754640EA0C005B084FEA20
:101180003202B6EB020E75EB030E22BFB61A75469D
:1011900040EA5C005B084FEA3202B6EB020E75EBE8
:1011A000030E22BFB61A754640EA9C005B084FEA60
:1011B0003202B6EB020E75EB030E22BFB61A75466D
:1011C00040EADC0055EA060E18D04FEA051545EA5C
:1011D00016754FEA06164FEAC30343EA52734FEA05
:1011E000C2025FEA1C1CC0D111F4801F0BD141EA7E
:1011F00000014FF000004FF0004CB6E711F4801FE3
:1012000004BF01430020B4F1FD0C88BFBCF5E06FC2
:101210003FF6AFAEB5EB030C04BFB6EB020C5FEAD2
:10122000500C50F1000041EB045170BD0EF0004E27
:101230004EEA113114EB5C04C2BFD4EB0C0541EA59
:10124000045170BD41F480114FF0000E013C90E656
:1012500045EA060E8DE60CEA135594EA0C0F08BF1A
:1012600095EA0C0F3FF43BAF94EA0C0F0AD150EA19
:1012700001347FF434AF95EA0C0F7FF425AF1046AC
:1012800019462CE795EA0C0F06D152EA03353FF4D4
:10129000FDAE1046194622E750EA410618BF52EA51
:1012A00043067FF4C5AE50EA41047FF40DAF52EA25
:1012B00043057FF4EBAE12E74FEA410212F500124C
:1012C00015D211D56FF47873B3EB625212D94FEA8D
:1012D000C12343F0004343EA505311F0004F23FA77
:1012E00002F018BF404270474FF00000704750EACC
:1012F000013005D111F0004008BF6FF00040704789
:101300004FF00000704700BF4FEA4102B2F1E043E6
:1013100024BFB3F5001CDCF1FE5C0DD901F0004CDC
:101320004FEAC0024CEA5070B2F1004F40EB83002C
:1013300008BF20F00100704711F0804F21D113F158
:101340003872BCBF01F00040704741F480114FEA91
:101350005252C2F11802C2F1200C10FA0CF320FA1A
:1013600002F018BF40F001004FEAC1234FEAD32337
:1013700003FA0CFC40EA0C0023FA02F34FEA4303A1
:10138000CCE77FEA625307D150EA01331EBF4FF02A
:10139000FE4040F44000704701F0004040F0FE4045
:1013A00040F40000704700BF01F0FF01102A2BDB62
:1013B00010F0070F08D010F8013B013A8B422DD0F6
:1013C00010F0070F42B3F6D1F0B441EA012141EA2F
:1013D000014122F007047FF000070023F0E80256E5
:1013E000083C85EA010586EA010685FA47F5A3FA75
:1013F00087F586FA47F6A5FA87F68EB9EED1F0BCE6
:1014000001F0FF0102F0070232B110F8013B013A8E
:1014100083EA010313B1F8D1002070470138704707
:10142000002D06BF35460338073815F0010F07D1E8
:10143000013015F4807F02BF013015F4C03F013048
:10144000F0BC0138704700BFEC46A0E8F05F4FF0F9
:1014500000007047B0E8F05FE546080008BF0120D3
:10146000704700BF10F8012B11F8013B012A28BF7B
:101470009A42F7D0D01A7047034613F8012B002A7E
:10148000FBD1181A0138704700207047084A1378BA
:101490000133DBB21D2B05D9002301211370036832
:1014A0009B6818471370002103689B68184700BFAA
:1014B000002600208368012B01D09B0630D542F224
:1014C000F833F0B5804C91B00E460546E3567BB13B
:1014D00043F2BC0242F2FA33A158E35EB1F90A10BA
:1014E00003F10A02914251DD40F28D3293424DDD0B
:1014F00042F2DC33E356022B4FD042F2BA3341F6CC
:101500005832E35AA3F57A739BB293420AD9324612
:1015100028466E4B202193F005FA002011B0F0BD53
:101520000120704744F2F003694AE35892ED007AD3
:10153000D3ED097AB4EEE77AF1EE10FA1FDC92ED02
:10154000017AD3ED0A7AB4EEE77AF1EE10FA16DCFE
:1015500042F2F433E35E002B71DD42F2E053E25CD1
:101560000D2A21D943F2E843E0588CF04FFE38BBF6
:1015700032462846574B202193F0D4F9CDE7324626
:101580002846554B202193F0CDF9C6E73246284630
:10159000524B202193F0C6F9BFE7514B3246202130
:1015A000284693F0BFF9A8E74FF42153D340D90759
:1015B000D8D5324628464B4B202193F0B3F9ACE7FF
:1015C000494810F061FC012827D043F2E143E35C75
:1015D000DB061BD444F2F4003223444903AA20580A
:1015E00088F06AF848B144F2F000322303AA404977
:1015F000205886F001FB002890D103AB32462846E4
:10160000202100933B4B93F08DF986E73246284624
:10161000394B202193F086F97FE744F2F803E05834
:1016200089F0FCFF01281CD002280FD00028CCD163
:1016300032462846314B202193F074F96DE732464B
:1016400028462F4B202193F06DF966E744F2E823FA
:10165000E35693B9324628462A4B202193F062F98B
:101660005BE743F26013E35CDA0717D4324628469F
:10167000254B202193F056F94FE703AA0DF10A01FB
:1016800022484AF0F5FDBDF80A30002B9DD03246C5
:1016900028461F4B202193F045F93EE719211D48AC
:1016A00049F08AF90028E1D042F2D03319211948D3
:1016B000E75E49F091F9874287DD32462846164BAE
:1016C000202193F02FF928E728330020B08B15084C
:1016D00050570020B08A1508C08B15089C8B150840
:1016E000708A1508DC8B150834860020808B15085D
:1016F000988B1508848B1508688B1508C88A1508FF
:10170000988A1508188B1508FC8B15081076002090
:101710003C8B1508D8430020EC8A15082DE9F047CA
:10172000344E43F2E84582B0735993F86A40F4B1FD
:1017300088462021074693F0EBF818B9204602B0FE
:10174000BDE8F08720F0DAF820F0D8F890F82030E3
:10175000032BF3D170598CF039FDB0F57A7F0DD0A1
:1017600041463846244A002493F016FAE6E7234A15
:1017700093F012FA204602B0BDE8F08770598CF061
:1017800035FDB0F5FA6F06D0414638461C4A0024B4
:1017900093F002FAD2E7002075F020FE81467059DE
:1017A00003681B6A98474FF0000C0122B9F8E4A1C6
:1017B0006346614696460EFA01F5561C11460542EF
:1017C0000AD01AEA050F03F1010905D15FFA89F37E
:1017D000BCF1000F08BF94460F29F2B2EBDD002BDD
:1017E000ACD0CDF800C041463846064A002493F0FC
:1017F000D3F9A3E728330020F4891508D489150804
:10180000188A15083C8A15088368012B01D05B06ED
:101810001AD5104B42F2F8329A56AAB142F2FA3275
:1018200010B543F2BC049A5E82B01C59B4F906307C
:101830009A420BDD0A460849084B0091402193F07B
:1018400071F8002002B010BD01207047012002B0E5
:1018500010BD00BF28330020008D1508D4361708AE
:1018600070B58EB005460E46322201A90C4871F0C3
:101870008BFC044640B99DF9043043B101AB3146BD
:101880002846084A93F088F920460EB070BD2846D5
:101890003146054B034A93F07FF920460EB070BDE8
:1018A0005C620020D4361708188D15082DE9F04722
:1018B00098B00F4606461AF065FE04463222002113
:1018C0000BA833F1E5FA23680BA920469B6A322264
:1018D00098470546002861D044F61053DFF8108180
:1018E00058F8030003689B68984781463E4871F0AA
:1018F000C3F9B9F1000F5BD110F0060F3CD04046A0
:1019000015F032FB034600285FD003A9204619F0EA
:1019100041FB18B19DF80D305B065DD400200DF140
:101920001C0C0DF12009DFF8E080089006AB09904F
:1019300005AA0A9004A9D4F800E02046CDF804C016
:10194000CDF80090DEF8E8A0D047D8ED007AF5EEAB
:10195000C07AF1EE10FA13DD484638F0FBFFD8EDFF
:10196000007AB4EEE70AF1EE10FA09DB39463046A8
:101970001E4A002593F010F9284618B0BDE8F087FC
:1019800004F598711A4805F03FFF0028F4D0394655
:101990003046184A002593F0FFF8EDE730460BABD0
:1019A0003946154A93F0F8F8284618B0BDE8F08794
:1019B000404615F0D9FA03460028A6D139463046EC
:1019C0000E4A1D4693F0E8F8D6E7394630460C4AF1
:1019D0001D4693F0E1F8CFE739463046094A002525
:1019E00093F0DAF8C8E700BFE4740020E88C15082B
:1019F00028330020D48C1508788C1508848C1508A1
:101A00009C8C1508C48C15083C57002070B5836861
:101A10008EB013F0210F11D00D46044694F058FB00
:101A2000064658B13222002101A833F131FA30467E
:101A300001A9322294F01CFB064618B1012630465B
:101A40000EB070BD204601AB2946034A93F0A4F8BE
:101A500030460EB070BD00BFD436170870B544F6DE
:101A600010530C4C05460E46E0580368DB68984757
:101A700010B10124204670BD204615F087FA0446B7
:101A80000028F6D128463146034A93F085F82046CF
:101A900070BD00BF283300201889150870B50546B1
:101AA0000E46FFF703FF064B044631462846DC711D
:101AB000FFF7D4FF002814BF2046002070BD00BFF0
:101AC000988D00202DE9F04F43F2E8433A4E81B063
:101AD000F35893F868501DB1284601B0BDE8F08F67
:101AE0000F4604465CF0C8FB20215CF00BFA70B195
:101AF0005CF0C2FB1F215CF005FA40B1204639467C
:101B00002E4A93F049F8284601B0BDE8F08F43F221
:101B1000BE43F35C03F01403142B47D0A368BBB39C
:101B20003946204693F044FE394682462046FFF768
:101B3000C1FC394683462046FFF7F0FD3946814611
:101B40002046FFF761FE394680462046FFF788FEB3
:101B500043F2E143F35C9B0722D40AEA0B0509EA4E
:101B6000050508EA05052840C5B239462046FFF7B5
:101B70004DFF054039462046FFF770FF05403946C6
:101B8000204694F081F80540284601B0BDE8F08F6A
:101B90002368394620461B6B01B0BDE8F04F18475B
:101BA000074A3946204692F0F7FFDEE7054A3946F4
:101BB000204692F0F1FFB1E728330020488C150849
:101BC000208C1508308C150838B5FFF77BFF054AC7
:101BD00043F2BC43044DD15CA87160F30411D154AD
:101BE00038BD00BF28330020988D0020F0B583B0A9
:101BF00005460E4692F00CFF044620B3AB68012B5D
:101C000001D09A071FD515488BF0C0FBC0F3072001
:101C100010F0010717D1830715D510488BF05AFB38
:101C20000F4A44F29C039FED0F7AD35807EE903A87
:101C3000F8EEE77A30EE670AB0EEC00AB4EEC70AF3
:101C4000F1EE10FA02DC204603B0F0BD3246284621
:101C5000054B02213C4692F065FEF4E7F873002044
:101C6000283300200000C8425C8A1508F0B50546FC
:101C700091B00F4693F06AF8AB680446012B01D08F
:101C80005B070CD53222002103A833F101F925F0BE
:101C9000A9FE03A9322225F045FC064610B12046D4
:101CA00011B0F0BD03AB344628463A4600930421F8
:101CB000024B92F037FE204611B0F0BDD436170823
:101CC000F0B5054683B00E4693F008FAAB680446BB
:101CD000012B01D0DB0605D509488BF057FB10F02E
:101CE000010702D0204603B0F0BD3C4628463246EC
:101CF000044B102192F016FE204603B0F0BD00BF49
:101D0000F8730020C089150838B504460D4692F0D6
:101D1000CBFD28B1A368012B03D01B0601D438BD2D
:101D200038BD094A43F61923D35C2BB9294620460E
:101D3000BDE8384093F06CBA20462A46034B802118
:101D400092F0F0FD002038BD28330020648C150887
:101D50002DE9F041134C43F2B40643F2B80543F2C7
:101D6000BC0304F5435284B0E35888461268A7596F
:101D70000646655903926A4602930195009793F0CF
:101D8000B3FE41460546304692F0F8FD43F2BC42B0
:101D90002840A35C60F3C303C3F3C000A35404B0A2
:101DA000BDE8F081283300202DE9F0410746884640
:101DB000FFF77CFD28B900241F4B2046DC71BDE8ED
:101DC000F08144F610531D4E0446F05803689B689A
:101DD000984705461A4870F04FFF85F0010510F04E
:101DE000060F05F0010518BF0025BDB9BB68012B22
:101DF00001D01B0712D596F8B83442F2DE3203EB5D
:101E00004313B25E06EB8306B6F8463393420BDC0F
:101E10004146384692F016FE0028CCD0064B0122EF
:101E20002046DA71BDE8F08142463846054B08216C
:101E300092F078FDBFE700BF988D00202833002086
:101E4000E4740020B0891508F0B589B005460E4647
:101E500092F0C4FE044648B1AB68012B01D09B064A
:101E600004D5194A44F26C23D35C13B9204609B057
:101E7000F0BD07AA06A915486BF00AFF0028F5D0A7
:101E80009DED077ADFED127AB4EEE77AF1EE10FA03
:101E9000ECD8DDED066AB7EEC77A32462846FDEE8D
:101EA000E66A0C4B2021002405A7D7E90067CDED99
:101EB000006ACDE904678DED027B92F033FDD5E732
:101EC000000000403333E33F28330020D458002083
:101ED0009A99193F308D15082DE9F04383B00546D6
:101EE00088461AF04FFB03680746D3F8C830984776
:101EF00000286BD07A4E44F6105243F2C443A8F146
:101F00000101B05816F80390B1FA81F1036849094C
:101F10001B699847044600284FD001212846FFF747
:101F2000FDFB044600284DD043F2BE43F35C03F0B2
:101F30001403142B00F090805CF09EF91F215BF0DD
:101F4000E1FF684B002800F0AB801B78002B40F0CD
:101F5000A080AB68B3B3012B01D0DA061ED5D7ED54
:101F6000527A97ED510A20EE270A30F149F942F2F0
:101F7000BA33DFED5D7AF35E60EE277ADFED5B6A00
:101F800007EE103A67EEA67AB8EEC77AF4EEC77A93
:101F9000F1EE10FA75DCAB68012B32D09C061FD530
:101FA00043F2E142B25CD2061AD52846504B0122D8
:101FB000202192F0B7FC002404E028464D4A01217C
:101FC00092F0EAFD204603B0BDE8F08304464A4A99
:101FD0002846012192F0E0FD204603B0BDE8F083E1
:101FE000580613D4454B464A1B68D86C0368DB6916
:101FF00093426AD14146284603B0BDE8F04393F0CE
:102000000FBA43F2E143F35CD906CED442F2F8337F
:10201000F35643BBB8F1010F03D109F0EF03042BD2
:10202000E0D043F2BC032E48F358B3F9083000EE79
:10203000103AB8EEC00A00F0C1FAB5EEC00AF1EEEF
:1020400010FA2FDD2F4928462F4B00910122402105
:10205000002492F067FCB5E728462C4A01210024B1
:1020600092F09AFDAEE743F2BC0342F2FA32F35823
:10207000B25EB3F906309A42CCDD22492846244BA1
:10208000E3E72846234B0122102192F04BFC002469
:1020900098E72846204A0121002492F07DFD91E72F
:1020A000187056E744F61053F0580368DB689847F9
:1020B000B9F10B0F01D0002894D043F2BC03F358C0
:1020C000B3F90830002BBDDC8CE79847012891D18B
:1020D0000146124A2846002492F05EFD72E700BFD6
:1020E0002833002054970020E02E65420000C842AB
:1020F000688B1508408915082C891508488A002026
:10210000891402088089150874891508308C15080F
:102110009C8915086C891508548915088C8915083F
:102120002DE9F041544D2B78DBB9544F43F2E8448C
:102130004FF001083C5985F8008094F868401CB1C4
:102140002B702046BDE8F08193F050FE044660B944
:102150004B4A28702046137843F001031370BDE802
:10216000F08100242046BDE8F0814EF0A3FB4146FB
:102170004DF0B4FC384607F0D1FA0B26414B83F8FA
:10218000048041F025FC41F06FFB013EF9D13B4852
:1021900000F078FF1AF0F6F943F210538269804696
:1021A000FA5090F84031DA0758D59B0747D50021FF
:1021B000324800F0FFFF314814F0D6FE01463248A5
:1021C000002690F0D1FE98F88030304A012143F08B
:1021D0000403126888F88030D06C31F043F944F27F
:1021E0009C232648FA5C6FF34102FA5413F040FC3A
:1021F00043F2E8430121F8588CF08EFF4EF05AFB71
:1022000043F2C44343F2C542F95CBA5C4DF00CFEA4
:102210001A4807F075FA49F05FF948F009FD2E7089
:102220009FF0E6FA1A4B44F20415D9789A7866F3CF
:102230004101785142F02002D9709A7081E731460D
:102240000E4805F08DFB13488BF044F8DFED127A51
:10225000124B20EE270A83ED000AA8E70368D3F8A3
:10226000E03098474EF026FB3C214EF0B3FA0B4B82
:1022700000221A609BE700BF203300202833002093
:10228000B48D0020988D0020C0600020488A002076
:10229000E4670020F87300200AD7233CF867002089
:1022A0002DE9F04743F2E8433E4C84B0E35893F8FD
:1022B0006830002B55D001290AD14AB143F2BC4302
:1022C000E356002B04DB0026304604B0BDE8F0875F
:1022D00093F0F8FD06460028F5D01AF053F9814630
:1022E00025F080FB8246D9F800304846D3F8A43068
:1022F000984718B19AF95C30022B37D044F6105346
:102300002948E358834249D00BF0E6F801212548DB
:1023100007F048FC0121234807F054FB43F2E8434F
:102320000021E0588CF0F8FE204838F00BFE4EF00B
:10233000C1FA00214DF0D2FB99F880301C4A0021EF
:102340006FF38203126889F88030D06C31F08AF81C
:10235000184B30469A786FF345129A7004B0BDE876
:10236000F0870126304604B0BDE8F087002500273D
:1023700001E0032DC2D05FFA85F801AA4846013575
:10238000414601970297039719F0EAFF0028F0D021
:10239000414601AA504624F0DDFCEAE718460BF05E
:1023A0008FF8B3E72833002050830020F48000200A
:1023B000488A0020E4670020014870F0D5BC00BFC7
:1023C000E474002043F2BC4210B5835CC3F34014B4
:1023D0008C4203D061F34513835401B910BD4EF014
:1023E00069FA0F21BDE810404EF0F4B943F2F8420B
:1023F00082588A423AD0012938B505460C4625D084
:10240000022910D059B94EF055FA1B214EF0E2F9CD
:1024100043F2AC20164A0621284450F06FFF43F2E5
:10242000F843EC5038BD012100F0C4FE4EF042FAF2
:102430001D214EF0CFF943F2AC200E4A062128446C
:1024400050F05CFF43F2F843EC5038BD4EF032FAE6
:102450001A214EF0BFF943F2AC20074A0621284466
:1024600050F04CFF43F2F843EC5038BD704700BFCA
:10247000A48D1508C48D1508B48D150838B543F220
:10248000E145435D03F001048C4209D061F3000390
:102490000C464355DB0704D506F0DCFE024B9C726C
:1024A00038BD06F085FDF9E7988D002043F2E14341
:1024B000C25C10B461F34102024CC25421735DF856
:1024C000044B7047988D002010B504465BF0D4FE95
:1024D00020215BF017FD43F2BC430030234418BFBA
:1024E00001209A7860F382029A7010BD90ED290A5B
:1024F000704700BF9FED010A704700BF0000000059
:1025000043F2E14330B52DED028BC35C83B0DA07B3
:10251000019104D443F2BD43C35C5B0705D49FED36
:10252000240A03B0BDEC028B30BD044642F2D855FC
:102530000E20B7EE001A2544DFED1D0A08EE101A32
:1025400095ED000A35F038F8B0EEC07ADFED197A73
:1025500085ED000AB4EEE77AF1EE10FA1ED4B8EE7B
:10256000C88A9FED156AF7EE007A42F2244388EE9E
:10257000067A2344D3ED005A77EEC07A67EE076AF5
:1025800067EE877A26EE877AE0EE077A27EE860AEC
:1025900020EE250A03B0BDEC028B30BD42F224438D
:1025A000B8EEC88A234493ED000A28EE000AB8E783
:1025B000000000000000003400A08C4543F2E1421E
:1025C000F8B52DED068B815C11F0010405D143F2C5
:1025D000BD420546825C530704D49FED320ABDEC30
:1025E000068BF8BD42F2FC3710EE106A13F070FB58
:1025F00007EE900AEB5F5D20B8EEE79A9FED2AAAFE
:1026000008EE903ADFED270AB0EE4A1A00EE106AA3
:10261000F8EEE88A34F0D0FFB0EE408A2146E85F59
:102620004FF4C87279EE689A34F0FCFFE853F4EE88
:10263000C89AF1EE10FA17DD42F66463EB5E53BB05
:1026400042F2F433EB5E002BB8BF5B429BB207EE65
:10265000903A38EE698AF8EEE77A67EE887A87EE84
:10266000A90ABDEC068BF8BD79EE288AF4EEC88A7B
:10267000F1EE10FAB1D542F2F43338EE688A7AEE10
:10268000688AEB5E00EE103AB8EEC00A20EE088AC7
:1026900088EE280AA3E7002BB8BF5B429BB207EE87
:1026A000903AD6E70000000000007A4408B543F2F3
:1026B000E8430C4AC05803681B6893420FD190ED61
:1026C000290AB6EE007ADFED087A20EE070AB4EEAA
:1026D000670AF1EE10FA48BFB0EE670A08BD9847E6
:1026E000EFE700BFED2402080000000010B544F23F
:1026F000F0030446B7EE001A7B20DFED140A2DED3F
:10270000028BE35893ED2B0A34F056FF43F2E84175
:1027100044F2F4030E4A6058B0EE408AE45803686D
:1027200028341B6893420ED190ED290A38EE408A76
:102730009FED080A204628EE000ABDEC028BBDE89A
:10274000104078F083BD9847F0E700BF000000001C
:10275000ED24020800007A4410B441F6AC4341F67F
:10276000B844D2ED007A0444034491ED006AD4EDFC
:10277000006AD3ED005A26EEE77A5DF8044B67EE67
:10278000A57AA6EE257AE6EE267A81ED007AC2EDEC
:10279000007A704742F66463C35E2BB183EAE3704C
:1027A000A0EBE37080B2704742F2F433C05E0028C1
:1027B000B8BF404280B2704738B543F2E8452DEDCE
:1027C000028B435993F86830002B7BD043F2BC4313
:1027D000C356002B76DB44F610530446C0580368FA
:1027E000DB68984700286DD143F2C443E35C0B2BB0
:1027F00068D044F2F4039FED367AE358D3ED587A6B
:10280000F0EEE77AF4EEC77AF1EE10FA5AD5605995
:10281000383050F02DF8B7EE001A90ED000A6A201B
:10282000DFED2C0A34F0C8FEB5EEC00AF1EE10FA66
:1028300048DD44F2D00020448AF050FDB0EEC00ADA
:10284000DFED257AB4EEE70AF1EE10FA3AD544F25C
:10285000F00141F67033214AE358605808EE103A0F
:102860000368B8EEC88A1B6E93422ED19FED190AF9
:1028700038EE408ABDEEC88A18EE103A002BB8BF79
:102880005B42B3F5FA7F1DDA41F6743340F2E6326B
:10289000E35803F2F313934214D843F2E8459FED53
:1028A000100A60598BF006FD635941F258409FEDC4
:1028B0000C0AD3ED0A0A2044BDEC028BBDE8384077
:1028C0007AF086BEBDEC028B38BD9847D0E700BFDA
:1028D000000000340000000000007042F5240208EF
:1028E0000AD7233C00207047002070470020704723
:1028F00000207047704700BF43F2C443C05C70477C
:1029000030B40820034D32240D601470186030BCC0
:10291000704700BF088E150844F6105310B5C05814
:102920000C4603681B6C984707EE900A9FED047AEB
:102930000120F8EE677A67EE877AC4ED007A10BD61
:102940000AD7233C44F6105310B5C0580C46036810
:10295000DB6B984707EE900A9FED047A0120F8EEB2
:10296000E77A67EE877AC4ED007A10BD0AD7233C78
:1029700044F6105310B5C0580C4603685B6C98477A
:10298000DFED037A012020EE270A84ED000A10BD56
:102990000AD7233C03685B6D184700BF79F036BD4A
:1029A00062F0E8BF93F080BB6DF07CBE14F042BDD6
:1029B00004F0CEBB67F038BD13F08CBA13F022BA26
:1029C00013F0F6B948F0A2BC32F014BA4DF0E8B9F1
:1029D0001CF0E8BE5DF0EAB859F0CAB95AF0F6B892
:1029E00012F090BD13F0E6BB07F08ABA06F050BEB5
:1029F00006F038B805F024BF40F036BF12F01CBF17
:102A0000403070F0E5B800BF1BF090BB63F08CBAAB
:102A10006EF09EBA10F014B9FFF7CEBE12F0C2BE2F
:102A200090F0F8BF6AF094BF13F080BA03F00ABECA
:102A300012F03CBE12F0B0BD5BF082BB44F008B8AF
:102A400027F092B810B5044600F6782032F034FC36
:102A500044F2F003E0580368DB6A9847204612F01E
:102A6000DBFC012104F5DB5019F00CFB204606F0DD
:102A700047FF204605F0B4FF204607F025FB20461F
:102A800004F090FF204607F0F7F944F25410204478
:102A90005DF092F820464FF6FF7113F039FE10B149
:102AA000204602F0B5FE2046BDE810404AF0DABBF1
:102AB00006F088BC0AF05EB90AF008BB0AF0A0BABA
:102AC00044F6105310B504462DED028BC058B0EEFD
:102AD000408A0368DB69984720B90024BDEC028B6B
:102AE000204610BD9FED090A45F2BC1028EE000AF1
:102AF00020440CF00FFD04460028EED004480121CC
:102B0000FFF760FC2046BDEC028B10BD0000C84200
:102B10002833002044F6105330B50446C05883B023
:102B20000D460368DB69984760B10023DFED060AB4
:102B300045F2BC10294600931A46B0EE600A2044C4
:102B40000CF014FF03B030BD0000000044F6105339
:102B500070B505460E462DED068BC05884B0F0EEDC
:102B6000409A0368B0EE60AAF0EE41AADB69F0EE8D
:102B7000618AB0EE429A98470446F8B19FED128AF6
:102B800000234FF07E5268466AEE080A039329EE4E
:102B9000880A00922AEE881A0293019336F090FC7C
:102BA0009FED0A0A45F2BC1069EE080A69463246F2
:102BB00028EE800A284400230DF004F8204604B0D3
:102BC000BDEC068B70BD00BF35FA8E3C0000C842DC
:102BD00044F6105370B50546C05886B00E460368DB
:102BE000DB699847044610B3D6ED006A01229FEDD9
:102BF000116A002396ED017A45F2BC10D6ED027AF7
:102C000066EE866A27EE067ADFED0B0A67EEC67A75
:102C1000019200931A46B0EE600A284403A9CDED54
:102C2000036A8DED047ACDED057A0CF015FF204690
:102C300006B070BD0000C84200000000F8B544F6C0
:102C40008C4332490646C218016012793AB9C45819
:102C50002CB1204630F092FC20461FF0CDFA43F212
:102C60006C4143F2AC232A4A7058F25008B11FF06D
:102C7000BFFA284B41F6702041F2646741F27C6450
:102C800033603044374434447CF024FF083C2379DB
:102C90003BB92568284625B130F070FC28461FF066
:102CA000ABFAA742F2D106F59B5006F658555CF0F8
:102CB00057FD06F55964184BC6F8783A1C3C204677
:102CC0004FF056FBA542F9D106F6444706F6744488
:102CD000083C23793BB92568284625B130F04EFCE5
:102CE00028461FF089FAA742F2D10C4A96F86031C3
:102CF000F26743B9D6F85C412CB1204630F03EFC77
:102D000020461FF079FA3046F8BD00BF54921508EE
:102D100078CD160848B21608B45B160824151608B4
:102D200010B512F05DFF5BF0A7FA0368BDE8104034
:102D30005B681847FFF7F4BF10B5044606F05AFE6B
:102D4000204613F083FC204604F0A8FB2046BDE893
:102D5000104004F035BD00BFFFF7EEBF70B543F281
:102D600014550446054428461CF052F824F03AFE57
:102D700090F9593003B970BD43F2E84304F5DC66BD
:102D8000E05838304FF074FDB7EE001A90ED000AAD
:102D90006A20DFED100A34F00FFC94F9543728460E
:102DA0000021012B04F6242408BF86ED210A1BF024
:102DB000DBFEDFED097A9FED097A304620EE270A27
:102DC000D4ED007AA7EE870A84ED000ABDE87040D2
:102DD00024F0A0B800000000CDCCCC3D6666663F74
:102DE000FFF7BCBF10B50121044613F091FC00B9F8
:102DF00010BD44F61053064AD05803681B6A984722
:102E00000028F5D12046BDE8104002F0A7BB00BF66
:102E100028330020FFF7E6BF38B50221044613F03F
:102E200077FC002840F094800221204613F070FCCB
:102E3000002800F08580204602F012FC4FF400319B
:102E4000204613F065FC002876D14021204613F07F
:102E50005FFC002861D14FF48061204613F058FCDC
:102E6000002854D12021204613F052FC002840D1E4
:102E70008021204613F04CFC60B343F2C400204490
:102E80004BF084FA1021204613F042FC68B94FF64B
:102E9000FF71204613F03CFC00B938BD42F6486093
:102EA0002044BDE8384093F009B944F2F00343F2FE
:102EB000C405E058254483F013F942F2AC5128468A
:102EC00021444CF01DF842F2EC41284621444BF0DD
:102ED000B3FFDCE74FF48021204613F019FC0028F3
:102EE000CBD14FF40021204613F012FC0028C4D1AE
:102EF000C8E744F61053E05803689B6898470028D9
:102F00003BD044F2F403E05885F0B6FFB0E743F25B
:102F1000C40020444BF048F8A4E743F2C405281944
:102F20004AF0B0FF04F59B5393F90030002B92D088
:102F300028194BF0CBF88EE7204602F0A1FB84E77E
:102F40000121204613F0E4FB00287FF474AF75E7FD
:102F50000121204613F0DCFB00287FF465AF44F626
:102F60001053094AD05803681B6A984700287FF419
:102F70005BAF204602F0F2FA56E720460DF000FC67
:102F80000028BED174E700BF28330020FFF744BFFC
:102F900010B50121044613F0BBFB70B98021204617
:102FA00013F0B6FB20B143F2C40020444BF0CEF93D
:102FB0002046BDE8104002F04FBD204602F050FB15
:102FC000ECE700BFFFF7E4BF10B5044606F018FBBE
:102FD000204606F0CBF8204606F014FC2046BDE85B
:102FE000104014F04BBA00BFFFF7EEBF38B54FF6F4
:102FF000FF71044613F08CFB002836D143F2082001
:1030000043F2E8452044FEF741FA635993F86830EB
:10301000D3B904F5DB5016F017FE2046FFF754FA3B
:10302000605942F20E4242F2E0510368A25C1B6911
:10303000615C984743F2BC036059E358B3F90E2032
:10304000B3F90A108BF0F6F85BF042FA204614F060
:1030500007FA43F2BC4344F65541084AE35CDB43BC
:10306000C3F3C0136354537138BD43F2BC4307210B
:103070002046E25802F06CFBC0E700BF988D0020AC
:10308000FFF7B4BF41F6AC42F8B5024443F2FC4549
:1030900041F6B84300F5545612680544034404460B
:1030A0002A6041F678371B6844F250603360E35978
:1030B000184434F045FA43F2045143F2085243F203
:1030C0000C5360504FF6FF712D6822442344204674
:1030D000156032681A6013F01BFB00B9F8BDE259A5
:1030E00020460921BDE8F84002F008BB43F2F8434E
:1030F000C358002B55D043F2BD42825CD20750D555
:1031000043F2BD42012B115C6FF3000130B4115446
:1031100043F2B80146D043F20C5243F2085343F253
:10312000B40441580244B1F908100344045943F26D
:10313000B80507EE901A93ED006AB4F9083041F62D
:10314000AC41F8EEE77AD2ED005A07EE103A41F6BC
:10315000B8420144B8EEC77A024465EEE76A66EE0B
:10316000277AE7EE066A91ED006AE7EE257A92ED9E
:10317000007A27EE877AA6EE867ABDEEC77A17EE3A
:10318000103A238191ED006A92ED007A67EE867A1B
:103190004259E6EEC77AFDEEE77A17EE903A1381D0
:1031A00030BC704743F2FC4343F2B40400F5545280
:1031B0004158B8E710B504462DED028B61B943F2D2
:1031C000F843C358022B02D0BDEC028B10BD12F0A5
:1031D000F5FAB0F57A7FF7D3204612F00FFB43F2F1
:1031E000045240F2E631A3581B1A03F2F3138B4248
:1031F000EAD944F250631249A0500344DFED117A3A
:1032000081FB0312DB17C3EB621307EE103AB8EE33
:10321000C78A28EE278AB0EE480A2EF1A9FE43F2AB
:103220000853234483ED000AB0EE480A2EF170FFE4
:1032300043F20C53234483ED000ABDEC028B10BD16
:103240001F85EB5135FA8E3C10B5044612F046FD51
:103250001021204613F05CFA00B910BD204602F0A0
:10326000C9FC41F258402044BDE810407AF02EBA23
:10327000FFF7EABF2DE9F04FD44B41F6F42804469E
:1032800000F10805804400F5DB5700262DED028B88
:1032900040F8043B89B062F023FC04F120006DF09B
:1032A00033FBCB4B2846CB491D6044F0FFFE04F1B5
:1032B0005800C94D1EF0E4F8C84B069404F5E070C0
:1032C000079308AB13E9060047F0E0FD04F51B7017
:1032D00024F012FD04F5AE6019F0B2FC04F5DC60D8
:1032E00021F08CFE04F6782031F0ECFA04F57F60D2
:1032F00062F014FA41F2B000204446F0A9FC04F553
:103300009B505CF015FA41F29C3020441CF022FCEA
:1033100041F25840204479F03BF941F670202044B6
:103320007CF0C4FB41F68420204448F007FA404674
:1033300062F018FD41F6FC2341F60C30A84AE11872
:10334000E6542044116040F0E7F83146384617F063
:10335000BBF804F5085078F01DFA42F20C20204426
:1033600067F072F842F23820204478F065FF42F2AC
:103370003C2020447FF068FE42F2543020447EF02E
:10338000C3FE42F27430204481F054FD2B68002BC0
:1033900040F019839349204644F088FE924B42F254
:1033A00038402C60236043F2082520444FF0010987
:1033B00002F0DCFC42F2084143F2C40066192144E9
:1033C00020444CF065FA42F2FE3343F2581043F2C7
:1033D0005C1223440621235043F26C10A154204474
:1033E0004FF0D0F943F28C1020444FF0CBF943F268
:1033F000A01343F2B41044F8039020445BF040FE65
:10340000304691F053FA794B301D635144F028FE59
:1034100018B943F20C2304F8039043F2602043F2FE
:1034200038362044264443F0B7FA43F2AC23704ABE
:1034300004EB0309E25009F128052846143555F03C
:1034400043FBB542F9D143F26C4509F5D4709DF0C8
:10345000E9FF002263191E2140F27260DA801A81AE
:1034600099801EF0BDFE605143F2A04020449DF0C3
:10347000D9FF604B1A68002A00F0A28243F2AC2107
:1034800043F2C4424FF0000A43F2C5435A4D43F29F
:10349000C740B7EE008A44F2C0066550204404F8E5
:1034A00002A004AD04F803A026448EF0F3F943F221
:1034B000FC4243F208535149224443F2145023443E
:1034C000059182ED008A4FF4007183ED008A20445B
:1034D0004B4B44F278290494009395E80C001AF0C1
:1034E000E3FF43F61C2044F20C15204494F002F84C
:1034F00044F2A000B0EE480A254420444FF07CFA84
:1035000044F2B400B0EE480A20444FF043F930468C
:103510001EF0AEFA44F2D0033A4844F2D40144F229
:10352000E00244F2091EE05021442244E018002346
:103530000B604B608B60136053609360C76105F153
:103540001C0004F80EA044F2C8271EF091FA4FF4B4
:1035500000432D4928462B6427446E6444F0A6FDA1
:1035600044F25410294B20441D605CF053FA44F29D
:10357000BC1020446FF046FB44F25820204470F009
:10358000B9F804EB090046F075F9214B44F28C20A0
:1035900044F8093020446DF063FC44F2A8231D4A2E
:1035A00023441D491846C3F81080136044F07EFD83
:1035B000FF23384619493B743B7644F077FD184B9E
:1035C0001D68002D40F048822CE000BF48B216086C
:1035D0003C8C0020340F1608788E002095290208B4
:1035E000009A002060B1160854921508648D1508E1
:1035F00078CD16081C970020C0971508B12A02083C
:10360000F0911508F42B17084C101608448C002074
:10361000A08D1508089A00204CE3160854031708DB
:10362000A09A002044F6CC5644F2E82044F6F43840
:103630001F602644204444F69C49A044314648F08B
:1036400061FB44F6603004EB0907204486F0A0F8E3
:10365000404676F075FE414638468EF035F9DD4A33
:103660000623DD4944F8092044F6FC4087F854302D
:10367000DA4A20440B78116043B12B4601339BB2E8
:1036800003EB430211F83220002AF7D1D44AD5497E
:1036900015680B80002D40F0998145F2983844F66A
:1036A000105144F61459106004EB080344F6545AC0
:1036B00004EB090044F6905763504FF6FF7B0393E9
:1036C00006F060FCC84A04EB0A0044F8092004EB49
:1036D000070906F057FCC54A484644F80A2044F654
:1036E000CC5A06F04FFC44F6E45044F6EC5144F654
:1036F000F45244F8009044F6E85EBD4844F8019066
:1037000044F6F05144F8029044F6F852E05144F681
:103710000460B84F204444F80E70B74F675001273B
:10372000B649A1501EF0A4F944F61C6020441EF0D6
:103730009FF944F6346020441EF09AF9A6F87850B8
:10374000A6F87AB006F18000A6F87CB01EF090F9D9
:10375000AB4AC6F8CC503046AA49166044F0A6FCE5
:10376000A6F830B044F6C861A6F848B044F6EC6B51
:1037700004F80A5045F2280A727804EB0B0086F828
:103780007E5065F3000265F3410265F3C30265F301
:103790000412727045F2A80689F81051C9F8345124
:1037A00045F264096754A61998F0DCFA964A04EBCE
:1037B0000A0044F80B2045F2E80B06F0E3FB934ABD
:1037C00004EB090044F80A2045F2241A06F0DAFB5B
:1037D0008F49304644F8091045F2781906F0D2FBBB
:1037E00045F2A8038B4904EB0B00E15086F83C50EE
:1037F00086F83D5045F2BC1606F0C4FB864A04EB41
:103800000A0044F80B204FF0000B06F0BBFB45F21A
:10381000601204EB09018148224444F80A0008467A
:10382000C2F800B004EB060AC2F804B0C2F808B04F
:10383000029106F0A7FB02995046794A81F83C5064
:1038400044F8092045F2FC1906F09CFB754A04EB8C
:103850000900A25145F238268AF83C5045F2782AF0
:1038600006F090FB704AA01944F8092045F20C3983
:1038700006F088FB6D4A04EB0A00A25145F24C3673
:1038800006F080FB6A4A45F2F021264444F80A20FB
:1038900004EB0902214445F2D43A10460292C1F8E1
:1038A00000B0C1F804B045F2545B06F06BFB029A1D
:1038B000604B304644F8093045F2844982F83C7048
:1038C00082F83D501EF0D4F806F110001EF0D0F83A
:1038D00006F120001EF0CCF806F130001EF0C8F80A
:1038E000039B04EB0906184606F04CFB524B04EB15
:1038F0000A0044F8083045F2C44806F043FB4F4B39
:1039000045F21040A04444F80A3045F2145A2044CD
:103910000FF0DCFC304606F035FB494B86F83C5096
:10392000404644F8093004EB0A0906F02BFB4549F0
:1039300045F2C443484645F29456E15088F83C505D
:10394000264488F83D5004EB0B0806F01BFB3E4A6A
:1039500089F83C50404644F80A2006F013FB354BEA
:10396000304644F80B3088F83C7088F83D501EF023
:103970007FF806F110001EF07BF806F120001EF023
:1039800077F806F130001EF073F8304A45F2E45043
:1039900044F80B20204488F889700AF051FD45F264
:1039A000A460204410F070FC43F2E4422046A35C83
:1039B00043F00303A35409B0BDEC028BBDE8F08FC4
:1039C000C3F800905AE522489DF0EEFE21489DF094
:1039D000EBFE00BF60E8150898D21508348E002071
:1039E000F88D0020308E0020B8ED150828EE15085F
:1039F00098EF1508B52A0208B92A0208BD2A02085C
:103A00004C8D0020C467160864F0150808F01508EE
:103A10000CF1150878F11508E4F1150848F21508BD
:103A20004CF41508B0F4150888F51508F4F51508D8
:103A300060F61508A8F71508ECF815087CF81508C5
:103A4000A0F015085CFC150824F5150810F81508F9
:103A5000F89115083092150801489DF0A5FE00BFA9
:103A60000C92150810B5054C0A460146044B206817
:103A700004682468A047002010BD00BF488A0020C9
:103A80002833002010B59EF071F8064C064B1860E4
:103A90002046FFF7EFFB2046044A0549BDE81040E9
:103AA0002EF124B928330020488A0020B8A2002033
:103AB0003D2C020801207047FA207047024A42F26A
:103AC000BE33D05C704700BF28330020044A43F265
:103AD000F843D058A0F10100B0FA80F040097047D7
:103AE00028330020044A43F2F843D058A0F10200E2
:103AF000B0FA80F04009704728330020014812F0E6
:103B000029BE00BF2833002000F11C01F8B50EC902
:103B100041F4E05142F4E05243F4E0530446C16101
:103B20000262436243F01EF8064620B190F9053068
:103B3000002B40F08F805F4D44F66033EB563BB175
:103B4000E269236A42F0800243F08003E26123626B
:103B500043F2BD43EB5C5F0707D5E269236A42F499
:103B6000803243F48033E261236253486AF0F6F80E
:103B700018B1E36943F08063E361504B1F68002F85
:103B800000F08C801921384646F016FFE3690028C2
:103B900069D143F4C04343F2C442E361AB5C162BEA
:103BA00009D80122464902FA03F3194000296CD1D1
:103BB000444A134274D140486AF0E0F818B1236ACD
:103BC00043F08063236243F2BD43EB5C580704D5A6
:103BD00043F2E143EB5CD90752D546B1336833B1C8
:103BE0003379DA0703D5636A43F04003636244F62E
:103BF0006033EB5623B144F6EC33EB5C002B35D14C
:103C00002D486AF0C5F818B9636A43F080636362AF
:103C100044F65C33EB5C013B012B0BD804F11C0137
:103C20000EC941F4800142F4800243F48003E16153
:103C30002262636243F26013EB5CDB071FD5236AE9
:103C400043F480732362D7B13846192146F0E0FE71
:103C500088B9F8BDE269236A42F0400243F04003AC
:103C6000E261236267E743F4807392E7636A43F09B
:103C700080036362C4E7636A43F480736362F8BDE0
:103C8000636A43F480336362A7E7226A636A42F49B
:103C9000005243F40053226263628CE7E36978E7E1
:103CA000626A236A42F4C04243F4C0436262236200
:103CB00081E700BF28330020D4580020408E002028
:103CC00004A05000F8022F0070B50D4616464FF4C0
:103CD00000701EF08BFA32462946044652F016FE5A
:103CE000014B2046236070BDC499150808B590F8B3
:103CF0008C30994203DC243150F8210008BD49F092
:103D00001DFE16224FF4802149F0C6FD002008BD9B
:103D100008B590F88C30994203DC243150F821002A
:103D200008BD49F00BFE0F224FF4802149F0B4FD8D
:103D3000002008BD0020704700207047F030704719
:103D400000F5C070704700BF00F50470704700BFF9
:103D5000032070470F4B43F2C4429A5C172A16D8CF
:103D600001200D4900FA02F2114000290BBF50203A
:103D700058201021182143F2E8429B5823B193F8B0
:103D800068300BB141F0C00040F001007047502096
:103D90001021F0E728330020F800AB00014B187821
:103DA000704700BFE8560020034A42F2D053D05675
:103DB000003018BF0120704728330020024A42F229
:103DC000C233D056704700BF28330020704700BF71
:103DD0002DE9F04194B0044603A81DF049FE44F6D5
:103DE00010531C4A03A9D05803689B6B984710B91D
:103DF00014B0BDE8F08194F810809DF0F9FCDDED81
:103E0000047A96229FED147A3323F8EEE77A059927
:103E10000024069E07904FF6F87767EE877A0192A6
:103E200008910025404607AA57210093CDED0A7A54
:103E300009960B940C940D940E940F941094119475
:103E40001294ADF84C708DF84E5050F0C9F814B083
:103E5000BDE8F081283300200AD7233C104A43F202
:103E6000E843D058D0B1383000B583B04EF000FDF3
:103E7000B7EE001A90ED000A6A20DFED0A0A33F06F
:103E80009BFBDFED097A20EE270AFDEEC07ACDED2F
:103E9000017ABDF9040003B05DF804FB704700BF70
:103EA00028330020000000000000C84210B504467E
:103EB00092F00EF920B12146BDE8104092F0D2B840
:103EC00010BD00BF014807F0D1BD00BFB880002081
:103ED00070B542F2D4530B4C05460E46E3581446D7
:103EE000DB0703D5114608488EF00CF92146074838
:103EF00092F012FD224631462846BDE8704058F047
:103F000067BD00BF28330020C47F002098610020D7
:103F100010B5044653F05AFC054812F01BFC054A44
:103F2000034606212046BDE8104053F095BB00BF74
:103F300028330020B098150838B504460D469DF08A
:103F400057FC43F2D443044A2946D0502046BDE8EA
:103F5000384052F099B800BF2833002010B443F223
:103F6000B002044CA35C0133A3545DF8044B51F040
:103F7000D9BF00BF2833002010B508460C461EF0FC
:103F8000ADF808B9042010BD2146024802F09AFF9E
:103F9000002010BD4C8A0020014803F0E1BC00BFA6
:103FA00028330020014803F05DBC00BF2833002007
:103FB00038B58B8B0C460546CD2B05D021462846BF
:103FC000BDE8384051F0DCBF0D4A44F256130D48AD
:103FD000D15C5BF0F7FD0028F0D194ED020A0146B8
:103FE000DFED097A0246DFED090A094820EE270ACB
:103FF00002F0FAFE21462846BDE8384051F0C0BF25
:10400000283300207C7400200AD7233C00000000E5
:104010004C8A002038B50C464B7A897A0546E27AFC
:1040200043EA012343EA02439D2B05D0214628465B
:10403000BDE8384051F01ABF0E4A44F256130E48FC
:10404000D15C5BF0BFFD0028F0D1D4ED057A0146CC
:104050009FED0A0A0246F8EEE77A0948DFED090A01
:1040600027EE800A02F0C0FE21462846BDE838400F
:1040700051F0FCBE283300207C7400200AD7233C7A
:104080004C8A00200000000038B50A4A44F2E823B8
:10409000D3563BB940F6CD14002551F0F5FE204330
:1040A000294338BD40F6CD34002551F0EDFE2043C4
:1040B000294338BD2833002010B504461EF09CF873
:1040C000204610BD38B50D4C43F2BC43E356002BDF
:1040D00008DB44F61055605903681B6B984718B10C
:1040E000042038BD012038BD60590368DB6A984759
:1040F000002814BF0320022038BD00BF2833002051
:1041000038B5F7EE000A91ED050A0C46054633F086
:104110000FF928B921462846BDE8384055F0C8BEF9
:1041200029460248BDE8384003F04EBC2833002041
:1041300000B5002385B001930293039315F0C0FFEF
:10414000036801A95B6F984760B925F0B1FD90F84D
:104150004C3203EB431300EB830090ED330A05B0C0
:104160005DF804FB01A836F0F5FB05B05DF804FB33
:104170000B7ADB0706D5044841F69442CB68825897
:104180001344CB60704700BF28330020044B1878DD
:1041900028B9044A43F2BE43D05CC0F38010704794
:1041A000408C0020283300202DE9F04343F2BD432A
:1041B000434C2DED048BE35C8FB09B0604D40FB011
:1041C000BDEC048BBDE8F08344F2F00306469FED9E
:1041D0003D8AE0589FED3C0A3C3036F0A7FC44F69F
:1041E000105361EE087A8DED040AE55820EE089A26
:1041F000CDED050A60EE888AFDEEE77A2B688DED3D
:10420000061A2846DB6BCDED037A96F81090BDF9BF
:104210000C70984707EE900A2B682846F8EEE77A6C
:104220001B6C67EE887AFDEEE77ACDED037ABDF977
:104230000C60984707EE900A9FED247AF8EE677AB3
:1042400027EE888AB4EEC78AF1EE10FA31D44FF621
:10425000FF7844F2F403E058002484F021F92B683D
:104260002846B0EE408A5B6C9847DFED167A1A223A
:10427000B72320EE270A484628EE278A01930092AA
:1042800013463E2107AA8DED079ACDED088AADF8B9
:104290003070ADF83260ADF834808DED0B0A8DEDE5
:1042A000098A0A944FF09CFE0FB0BDEC048BBDE868
:1042B000F083FCEEC87ACDED037ABDF80C80C8E738
:1042C000283300200AD7233C9F0CB34500FF7F47CB
:1042D000F0B5494C44F6105506462DED068B605955
:1042E00097B00368DB699847002852D045F2F8136D
:1042F000E35C012B69D0022B4FD044F2F8039FED11
:104300003F0A4FF47C67E058483036F00FFC6359A1
:10431000F0EE407ACDED040A5B69F0EE40AA9FED25
:10432000370AB0EE608A1868B1EE41AACDED037A83
:1043300000F5AC708DED051A36F0F8FBF0EE409A02
:10434000F0EE608AB1EE419A367C9DF051FA33224C
:104350008C210024012509901346019130460092DA
:10436000552109AACDED0AAA8DED0B8A8DED0CAA77
:10437000CDED0D9ACDED0E8A8DED0F9AADF85470FE
:10438000109411941294139414948DF856504FF085
:1043900027FE17B0BDEC068BF0BD635940F6C7771A
:1043A0009FED160A5B699FED168A1868F0EE48AA21
:1043B0009FED14AA00F5AC7036F0B8FBF0EE409A11
:1043C000F0EE608AB1EE419ABEE744F2F8039FED49
:1043D0000B0ADFED0B8A40F6F877E058F0EE689AAA
:1043E0009FED089A483036F0A1FBF0EE40AAB0EEFF
:1043F000608AB1EE41AAA7E7283300200AD7233C00
:1044000000000000000000800B4B43F2E1429A5C88
:10441000D10703D443F61921595C09B1052070472F
:1044200012F01E0FFAD143F2BC429B56002BB4BFD0
:1044300003200420704700BF2833002008B5084A35
:1044400042F20C43D356032B03D0BDE8084053F08F
:104450001DB9044A022153F0FFF8042008BD00BF33
:1044600028330020BC981508094B42F2D4529A58C0
:1044700092070BD544F2C402DFED067A9B5800EE9A
:10448000103AB8EEC00A20EE270A704751F046BB3A
:10449000283300200AD7233C2DE9F04F3E4C8DB045
:1044A000DFF804B1804601253C4EE71CABF104095E
:1044B000DFF8F8A0B6F900306A1E1341DB070BD411
:1044C000A74206D014F8015BF4E798F810004FF00B
:1044D000E3F90DB0BDE8F08F98F81000039250F0AA
:1044E00035FA029098F8100051F076F8029B1930D6
:1044F000039A8342E9D3032AE2D8DFE802F0384185
:104500002D02DBF8001090310029D9D0D1ED067AC8
:104510004FF0190E0B684FF0620C4A68CDED077A28
:10452000D1ED037A91ED047ACDED087AD1ED057ADB
:10453000C22198F8100005937346069205AACDF89B
:1045400004C0CDF800E08DED097ACDED0A7A8DF842
:104550002C504FF045FDB3E7D9F8000003681B6904
:10456000534517D100F5047000F16801CCE7D9F884
:1045700000000B4A03689B6893420BD1F030F3E7CD
:10458000D9F80000074A0368DB68934202D100F5BE
:10459000C070E9E79847E7E7919A1508405700206F
:1045A0003D3D0208413D02081C740020493D0208BF
:1045B000014812F0C3B800BF28330020024A43F27A
:1045C000C443D05C704700BF28330020034A43F245
:1045D000BD43D05CC0F34010704700BF28330020BB
:1045E00070B544F610533E4D06460C46E8582DED86
:1045F000028B036888B0D1ED017ADB69BDEEE78AF2
:10460000984780F0010010F0FF0F08D018EE103A24
:10461000DB0704D4022008B0BDEC028B70BD6169D9
:10462000206933F0C5FA0028F4D004A81DF020FA60
:10463000D4ED067A9FED2B7AF0EEE77A2269636972
:104640000692F4EEC77A0793F1EE10FAE2DC3046F8
:1046500003AA94F8201058F081FB0028DAD09FEDCF
:10466000227A04A8D4ED067A039A67EE877AFDEEE3
:10467000E77A17EE901A1DF03BFA1C4904A81DF0CA
:1046800039FD03460028C5D1DFED190A0246009026
:1046900004A9B0EE600A17480BF068F908B90420C5
:1046A000B9E744F61053E8580368DB6998470446B5
:1046B00008B10020AFE702220421094806F008F8FB
:1046C0000028ECD0DFED0A0A04A900942346B0EEDE
:1046D000600A224607480BF049F90028DFD0E8E7D6
:1046E00028330020001CA2470000C842E8730020C5
:1046F00000000000E48400208B8B202B05D0C02B11
:1047000001D1FFF76DBF55F063BED1ED007AF5EE34
:10471000C07AF1EE10FA14DD9FED0B7AF4EEC77A51
:10472000F1EE10FA0DD8FCEEE77A82B0074942F6B6
:1047300072620020CDED017A9DF804308B5202B0F8
:1047400070470320704700BF00007F4328330020DC
:1047500030B5002304462DED028B8DB003930493F6
:10476000059315F0ADFC036803A95B6F984718B972
:104770000DB0BDEC028B30BD15F0A2FC0368DB6E02
:104780009847F0EE607AB0EE407A8DED081AF1EEBF
:10479000400A257CB1EE670ACDED077A8DED067AE9
:1047A0002DF1DAFD06A8B0EE408A36F0D3F8DFED41
:1047B0000B7A01220C2368EE277A089C0192284686
:1047C00009AAA82100938DED0A0ACDED097A0B9470
:1047D0004FF006FC0DB0BDEC028B30BDE02E654203
:1047E000A1F11903F0B5044683B0212B6FD8DFE89F
:1047F00003F02F6E6E6E6E6E6E6E6E6E586E6E4144
:104800006E6E6E6E6E6E6E6E6E6E6E6E6E6E6E6EC8
:10481000336E2F2FA06A03681B6A98470746207CD7
:10482000B7F5005F80F0898050F0D6FE2630B842A0
:104830006DD8002302AA3721204622F8023D54F009
:10484000C9FC28B1217C3046BDF8062071F066FF16
:104850000125284603B0F0BD90F8FD51002D3CD055
:10486000207C50F0B9FE0025207C4FF015F828463A
:1048700003B0F0BD90F8FD31002BF1D1806A0368E0
:104880001B6A98470546207CB5F5005F49D350F078
:10489000A3FE0125217C2A4847F0F8FD284603B0F5
:1048A000F0BD90F8FD31002BDAD1806A03681B6AF5
:1048B00098470546207CB5F5005F38D350F08CFE54
:1048C00001252046FFF744FF284603B0F0BD56F00F
:1048D00079F80546284603B0F0BD806A03681B6A74
:1048E00098470646207CB6F5005F14D350F074FE5E
:1048F000217C144875F094FE134B1E68002EA7D03F
:1049000094F8FD31002B85D0207C50F065FE207C92
:104910004EF0C2FF9DE750F05FFE2630B042E7D96F
:10492000A1E750F059FE1230A842B2D99BE750F0EF
:1049300053FE0C30A842C3D995E750F04DFE78E7FE
:10494000107600201C7F00209C9A0020F0B58B8BF5
:1049500087B0BD2B00F0AF810C461DD940F6D812B0
:1049600093423CD040F283804AF21242934248D0B4
:1049700040F29A804AF21342934200F0AE804AF22B
:104980006862934225D1D34891F0FCFA002840F0A8
:10499000CB81042007B0F0BD162B00F06F8110D83A
:1049A000142B00F0B88100F2AD81112B11D102223D
:1049B0000521C94805F08CFE0028EAD0002007B088
:1049C000F0BD732B00F02781B22B00F0FE80202B6E
:1049D00033D0214607B0BDE8F04057F0E9BAD1ED39
:1049E000017ABE48FCEEE77ACDED037A9DF80C30F3
:1049F000012B0CBF0021012172F020F8002007B02C
:104A0000F0BDB54E43F2E143F05C10F00105D5D1A5
:104A100043F2E843F35893F86870002F00F0C9811F
:104A200043F2BC43F356002BC0F2AD813046022264
:104A3000092105F04DFE2846E1E7D1ED007AF5EEBB
:104A4000C07AF1EE10FAA4DD9FEDA57AF4EEC77AF4
:104A5000F1EE10FA9DD8FCEEE77A9F4942F67262B9
:104A60000020CDED037A9DF80C308B52C7E7D12B97
:104A700000F08980B3F5967F65D0D02BA9D1D1ED18
:104A8000007AFCEEE77ACDED037ABDF80C1001292F
:104A900000F06081C0F0688102297FF47AAF8E480F
:104AA00003F08AFC0020AAE74AF21142934290D117
:104AB000894843F2E143C35CD9073FF57FAF022247
:104AC000052105F005FE00287FF478AF0222824818
:104AD000114605F0FDFD002091E77F4B43F2E142D6
:104AE0009A5CD2073FF56AAF43F2E8429A5892F8CF
:104AF0006820002A3FF462AF43F2BC429A56002A73
:104B0000C0F28581D1ED007A9FED767AF0EEE77AFA
:104B1000F4EEC77AF1EE10FA07D443F2C4429B5C7C
:104B200003F0EF03042B3FF449AF022211216A483E
:104B300005F0CEFD0028C9D06B4840F6C41108F03E
:104B4000AFFD00205BE7644C43F2E843E35893F881
:104B50006830002B3FF41DAF02220321204605F0F0
:104B6000B7FD00283FF415AF01212046FDF72AFCD0
:104B700044F6CC53E35C012B3FF420AF5B4838F0A4
:104B800015FA00203BE7D1ED047A014694ED017A55
:104B9000FCEEE77AD4ED030ABCEEC77A94ED020A84
:104BA0004D48CDED057AD4ED007A9DF81420FCEE49
:104BB000E77A8DED037A00929DF80C30CDED047A02
:104BC0009DF8102010F07AFB19E7D1ED017AF5EE8F
:104BD000C07AF1EE10FA7FF7DCAE91ED007ADFEDEE
:104BE000446AB4EEE67AF1EE10FA00F3E980DFED04
:104BF000416A44F2F8039FED400AB4EEE67A364A81
:104C000027EE800AD058F1EE10FA40F3B88086F013
:104C10007DFD0020F3E691ED000AB5EEC00AF1EE4D
:104C200010FAFFF6B6AEDFED357AB4EEE70AF1EE34
:104C300010FA3FF6AEAED1ED037A9FED2A7AF0EE90
:104C4000E76AF4EEC76AF1EE10FA40F1C580DFEDD5
:104C5000256A94ED027AF4EEE67AD4ED010AFDEECF
:104C6000C77A2748F1EE10FACDED037A9DF90C10C2
:104C7000ACBF0122002202F0B7F89FE6D1ED027A24
:104C800044F61053DFED176AF0EEE77A91ED060A6D
:104C90009FED197A104AF4EEE67A20EE070AD05812
:104CA000F1EE10FA4CBF0121002112F09FF900280B
:104CB0003FF46FAE82E60D4838F08EF900283FF4DD
:104CC00068AE02220321044805F002FD00287FF4AB
:104CD00075AE5EE67061002028330020F07500207C
:104CE00000007F43000000348C830020F48000200B
:104CF0009A9939403333F33F0000C8420000B4436F
:104D00004C8A002002220921444805F0E1FC0028D9
:104D10003FF43FAE52E602220621404805F0D8FC9F
:104D200000283FF436AE49E6D4ED017AFCEEE77A8E
:104D3000CDED037A9DF80C30012B61D0002B59D0BA
:104D4000022B7FF426AE364894ED030A91F06EF9FB
:104D5000002054E6334861F081FB4BF0ABFD32217B
:104D60004BF038FD00204AE600212E4861F076FB2A
:104D70004BF0A0FD31214BF02DFD00203FE686F0E9
:104D8000BBFC00203BE602220521304605F0A0FCDA
:104D900000283FF413AE94ED000A44F61053DFED03
:104DA000227A0121F05820EE270A12F01FF9284636
:104DB00025E601221D481146FDF7B2F938461EE6E8
:104DC00044F2F803154A9FED180AD05827EE800ADE
:104DD00086F0AAFC002012E6B0EE670AF7EE000AA1
:104DE00032F0A6FA00283FF4D4AD94ED000AD4EDD9
:104DF000037A2CE7094A42F654630020D054FEE5BA
:104E0000074894ED020A91F0FBF80020F7E5012233
:104E100008210648FDF744FA0020F0E52833002079
:104E200070610020D07500200000C842306500206D
:104E3000F6EE007A91ED007AB4EEE77AF1EE10FA30
:104E400001DC0420704708B5012205210248FDF766
:104E500027FA002008BD00BF306500202DE9F0438F
:104E600005460C462DED028B4B7A9FB0887ACA7AA4
:104E700043EA002343EA0243872B00F2C080862BDB
:104E800080F05A82522B00F03C8140F2C780562BB2
:104E900000F094816D2B00F04582542B40F011827C
:104EA000CD78352200210EA8954228BF15462FF156
:104EB000EFFF0EA804F10C012A462FF1C3FF44F6C0
:104EC0001053B54AD0580368DB699847002800F0B2
:104ED000A0809DF86C60F51FEDB2012E18BF022D69
:104EE0008CBF0127002700F29480BDF8684014F4BD
:104EF000E07F00F08E80002314F0070806930793EC
:104F000008931BD19FEDA56AA6F10803DDED106A99
:104F10009DED117A012BDDED0F7A66EE866A27EEA4
:104F2000467A67EE867ACDED076A8DED087ACDED8B
:104F3000067A40F20983022D40F2F882002314F031
:104F400038050A930B930C9318D19FED946AA6F140
:104F50000803DDED136A9DED147A012BDDED127A65
:104F600066EE866A27EE467A67EE867ACDED0B6AA4
:104F70008DED0C7ACDED0A7A40F2E08214F4806275
:104F800040F080829DED180A083E9FED857ADFEDA6
:104F9000837A012E20EE070A8CBF0027012720EE1E
:104FA000270A14F4006440F06A82DDED190A9FEDCF
:104FB0007C7ADFED7A7A60EE870A60EEA70AB8FAAB
:104FC00088F3B5FA85F15B09490913B1002940F06E
:104FD000B981B8F1000F02D0002940F0C181C5B1FC
:104FE000BBB1B4FA84F30021B2FA82F200970191C6
:104FF0005B09520906A96B480AF05CFC09E0F32B37
:1050000000F064816ED8952B40F05981664884F099
:1050100021FD1FB0BDEC028BBDE8F083002B00F03A
:105020003F81452B40F04D815B4ECA7906F50F5309
:10503000B3F900309A42ECD1CA7800270C310EA89F
:105040000B2A0F970E9728BF0B22CDF83F702FF138
:10505000F9FE42F2BE339DF84220F35E9A42D8D167
:10506000BDF93C80B845D4DB9CF0C2FB43F2B401EF
:1050700004460090BDF93A204FF47A7371582846DF
:105080009FED4A0A019757F081FE43F2B8030120D1
:10509000BDF93820F1584FF47A73019028469FEDFE
:1050A000430A009457F072FE43F2BC030094424658
:1050B000F15828463B469FED3E0A019757F066FEA1
:1050C00006F54353BDF93E20284619684FF47A731C
:1050D0009FED360A8DE8900057F058FE43F2D44316
:1050E000F45096E7F62B06D0C0F0EB80314A1A4414
:1050F000022A00F2E6802246297C2F4875F03AFE0B
:1051000087E7CD78272200210EA8954228BF1546B3
:105110002FF1BEFE04F10C010EA82A461E4C2FF101
:1051200091FE44F61053E0580368DB699847002865
:105130003FF46FAF9DF85E5015F0C00F7FF469AF7C
:1051400042F2D453E35803F00403002B14BF4FF092
:1051500001084FF0000800F06E8140F21440B7EEF5
:10516000001AFFEE000A9DED160A32F025FA85F0CE
:1051700004020F9F109E4346119DC2F38002129CB1
:105180000AA9DDED150A07480A970B960C950D94B0
:105190000AF018FD3DE700BF283300200000C84298
:1051A000E02E6542E4840020887E00200000FA445E
:1051B00000007A44EFD8FFFF1C7F0020CE78352214
:1051C00000210EA8964228BF16462FF161FE0EA8B8
:1051D00004F10C0132462FF135FE44F61053C54A56
:1051E000D0580368DB69984700283FF412AFBDF838
:1051F000684014F4E07F3FF40CAF06AF04F00706FC
:1052000038461CF035FC002E00F0498114F480680B
:1052100040F03E81DFEDB87A9DED188A9DF86C5024
:1052200028EE278ADFEDB57A083D012D28EE278A82
:105230008CBF0025012514F4006940F02D81DDEDBF
:10524000198A9FEDAD7ADFEDAD7A68EE878A68EE58
:10525000A78AB6FA86F114F038044FEA51110CBF50
:105260000120002011B1002840F0888016B10028EC
:1052700040F0BB80002C3FF4CCAE00293FF4C9AE17
:10528000B9FA89F3B8FA88F20095F0EE680A5B097A
:10529000B0EE480A5209394699480AF067FBB8E669
:1052A000944DCA7905F50F53B3F900309A427FF453
:1052B000B0AE9CF09DFA43F2D443E850A9E6A62B89
:1052C00030D02146284657F0BFF9A2E6CD783D22DE
:1052D00000210EA8954228BF15462FF1D9FD04F1F3
:1052E0000C010EA82A462FF1ADFD0E9D0F9E109CBD
:1052F00035B92EB924B901217E4802F031FB88E688
:105300000AA81CF0B5FB7F4AE3170AA982FB042414
:10531000784801220C95C3EBA4040D960B9402F07F
:10532000A1FA76E60821734811F0F2F92146024607
:10533000284652F0DDFA6CE60A467348297C47F0AD
:1053400001FA66E6B4FA84F4B2FA82F301970AAA83
:10535000640906A95B096A4800940AF0C7FB58E68D
:10536000B4FA84F30121B2FA82F2009701915B0949
:1053700052090AA962480AF06FFB4AE638461CF057
:10538000D5FB03283FF445AE0023384603A9039319
:10539000049305931CF000FD00283FF43AAE9FED06
:1053A000576AB9FA89F2DDED126AB8FA88F39DED11
:1053B000137A5209DDED147A66EE866A27EE067AD4
:1053C000009267EEC67A5B090195F0EE680AB0EECE
:1053D000480A03A90AAA4A48CDED0A6A8DED0B7A5C
:1053E000CDED0C7A0AF082FB13E69FED446AB9FA20
:1053F00089F3DDED126AB8FA88F29DED137A012186
:10540000DDED147A66EE866A27EE067A019167EE84
:10541000C67A5B0952090095F0EE680A0AA9B0EE57
:10542000480A3748CDED0A6A8DED0B7ACDED0C7A3E
:105430000AF012FBEDE5DFED350A40F21740B7EE5A
:10544000001A9DED160A32F0B7F8F6EE000AB0EE3B
:10545000408A31F06DFFC0B9F6EE007AB4EEE78A0B
:10546000F1EE10FA54DD38EE678A44F2F803E3589F
:1054700038EE088A93ED080A28EE000A77E6DFED99
:10548000230A9CE59FED210A8BE59FED200A6EE63D
:1054900000259FED1E8ACEE6DFED1C8AD9E6DDF8F9
:1054A0003C80DDF840904046494632F081FB0028C0
:1054B0003FF4AFAD284603AA9DF86C1057F04EFCA0
:1054C00000283FF4A6ADDDED117A0AAD9FED0B7A11
:1054D0004A46039B414667EE877A28460093FDEED5
:1054E000E77A17EE903A1CF0DBFA95E80F0087E8B0
:1054F0000F008BE628330020E02E65420000C842F2
:10550000E4840020676666661076002000000000D4
:1055100044F2F80337EEC88AE35838EE088A93ED70
:10552000090AB0EEC00A20EE480A20E6094887F0D2
:10553000CDFE014606A835F0CFFAFFE40BAA0AA972
:105540000548FDF709F919E507AA06A90248FDF77C
:1055500003F9F0E4F87300202833002070B544F21A
:10556000F00604468AB09FED3A0A805901AD3C30FE
:1055700035F0DCFA0AAACDED080A04AB8DED091A64
:105580008DED070A12E9070085E807009DED030A83
:1055900083E8070031F0BEFF294604F5DB508DEDAE
:1055A000030A13F0CBFF44F2F40343F2E84143F261
:1055B0000420E35861582058A25914F0BBF8204643
:1055C0004FF4805111F0A4F808B90AB070BDA05989
:1055D00043F2C4051F4A036825449B68934230D1B7
:1055E000F03000F16802A321284649F0BBFA44F2EA
:1055F000F003194AE0580368DB68934225D100F5AF
:10560000C07000F16802A421284649F0ABFA44F2C8
:10561000F003124AE05803681B69934213D100F566
:10562000047000F16802A521284649F09BFA44F273
:10563000F4032846A621E258903249F093FA0AB0C2
:1056400070BD9847CDE79847EBE79847D9E700BF8B
:105650009F0CB3453D3D0208413D0208493D02080B
:1056600010B5044616F08EFF16F080FF04F5DB54EB
:10567000204613F0CFFE2046BDE8104013F0F8BFDF
:1056800070B5002388B00446062243F2E845A32003
:105690009521019306930293039304930593CDF808
:1056A0001B308DF806208DF804008DF805109CF055
:1056B000A7F86359CDF80700D3F8D82003F1CC0040
:1056C000CDF80B10CDF80F204DF0D2F843F29873BF
:1056D0000668625943F2C400234401A9D2F8DC50A1
:1056E00020441B681B22CDF81360CDF81B50CDF869
:1056F00017304AF00FFA08B070BD00BF70B50D4604
:1057000084B04FF6FF711446064611F001F8E8B177
:1057100000230322A3209521009301938DF80220FA
:10572000029303938DF800008DF801109CF068F847
:10573000CDF8030043F2C400CDF8071010226946EB
:1057400030448DF80B5003944AF048FA04B070BD11
:1057500070B50D4684B04FF6FF711446064610F042
:10576000D7FFE8B100230422A320952100930193E1
:105770008DF80220029303938DF800008DF801103C
:105780009CF03EF8CDF8030043F2C400CDF80710BA
:105790001022694630448DF80B5003944AF01EFAEB
:1057A00004B070BDF0B500230722A3279526054657
:1057B0000C462DED048B87B0B0EE409AF0EE608A77
:1057C0000093B0EE418A01930293039304930593EF
:1057D0008DF802208DF800708DF801609CF010F8B3
:1057E000CDF8030043F2C400CDF807101822694633
:1057F00028448DF80B408DED039ACDED048A8DED94
:10580000058A4AF087F907B0BDEC048BF0BD00BFF4
:10581000F8B590F8991543F2E4430446CD00C25C14
:105820006B1A02F0010200EBC30393F8C1050028D4
:105830005FD093F8C20500285ED1BAB16B1A04EBB1
:10584000C30393F8C20500285CD143F2E445635DCD
:1058500060F3000363554BF02DF8635D122113F0E4
:10586000010F0CBF042200224AF0E2FF04F5DC67BE
:1058700043F2E4464FF000013846A55D1FF0FAFD03
:10588000C0B2C5F34005C0EB401004EB800090F8B7
:105890006937AB421AD04FF0000138461FF0EAFDDD
:1058A000A35DC0B2C0EB401004EB800090F8692704
:1058B00062F34103A3554AF0FDFFA35D032113F0FA
:1058C000020F0CBF042200224AF0B2FF43F2E4426E
:1058D00094F8B814A35CC3F38100884218D061F334
:1058E0008303A3544AF0E6FF4321BDE8F8404AF0A1
:1058F00071BF002AA9D1B9E793F8C335002B9CD01A
:10590000002AB3D1691A04EBC10191F8C3059CE7E1
:10591000F8BD00BF2DE9F0412F27804600213A460F
:105920002DED0A8B8CB0B0EE40CAF0EE60BAB0EE4E
:1059300041BA6846F0EE61AA1CEE106AB0EE42AAC7
:105940001BEE905AF0EE629A1BEE104AB0EE439AAC
:10595000F0EE638AB0EE448A2FF19AFA95220B2377
:10596000A3218DF801208DF802308DF800109BF0F6
:1059700047FF1AEE903ACDF8030043F2C400CDF889
:1059800007103A46CDF80B60CDF80F506946CDF8B8
:1059900013404044CDF817301AEE107A18EE103A42
:1059A00019EE906A19EE105A18EE904ACDF81B7055
:1059B000CDF81F60CDF82350CDF82740CDF82B301F
:1059C0004AF0A8F80CB0BDEC0A8BBDE8F08100BF2E
:1059D00070B5282406460D46002122462DED088B81
:1059E0008AB0B0EE40BAF0EE60AA6846B0EE41AAC6
:1059F000F0EE619AB0EE429AF0EE628AB0EE438A1F
:105A00002FF146FA0C239522A3218DF801208DF861
:105A100002308DF800109BF0F3FECDF8030043F246
:105A2000C400CDF807102246694630448DF80B506B
:105A30008DED03BACDED04AA8DED05AACDED069A44
:105A40008DED079ACDED088A8DED098A4AF062F84E
:105A50000AB0BDEC088B70BD44F66033F0B5C25699
:105A600095B0C4180AB915B0F0BD002305466946C3
:105A700020460493059306930093019302930393A6
:105A800083F0A0FF02A9204683F0C0FF04A92046AE
:105A900083F088FF07A8322200212FF1F9F995221F
:105AA0000923A3218DF81D208DF81E308DF81C10C0
:105AB0009BF0A6FE44F6EC33CDF81F002046CDF84F
:105AC0002310EB5C8DF8273083F01EFF44F68C31F9
:105AD00044F6B83244F66333009C6F5807A9AE58B9
